{
  "_format": "hh-sol-artifact-1",
  "contractName": "StakingContract",
  "sourceName": "contracts/StakingContract.sol",
  "abi": [
    {
      "inputs": [
        {
          "internalType": "address",
          "name": "_stakingToken",
          "type": "address"
        }
      ],
      "stateMutability": "nonpayable",
      "type": "constructor"
    },
    {
      "inputs": [
        {
          "internalType": "address",
          "name": "spender",
          "type": "address"
        },
        {
          "internalType": "uint256",
          "name": "allowance",
          "type": "uint256"
        },
        {
          "internalType": "uint256",
          "name": "needed",
          "type": "uint256"
        }
      ],
      "name": "ERC20InsufficientAllowance",
      "type": "error"
    },
    {
      "inputs": [
        {
          "internalType": "address",
          "name": "sender",
          "type": "address"
        },
        {
          "internalType": "uint256",
          "name": "balance",
          "type": "uint256"
        },
        {
          "internalType": "uint256",
          "name": "needed",
          "type": "uint256"
        }
      ],
      "name": "ERC20InsufficientBalance",
      "type": "error"
    },
    {
      "inputs": [
        {
          "internalType": "address",
          "name": "approver",
          "type": "address"
        }
      ],
      "name": "ERC20InvalidApprover",
      "type": "error"
    },
    {
      "inputs": [
        {
          "internalType": "address",
          "name": "receiver",
          "type": "address"
        }
      ],
      "name": "ERC20InvalidReceiver",
      "type": "error"
    },
    {
      "inputs": [
        {
          "internalType": "address",
          "name": "sender",
          "type": "address"
        }
      ],
      "name": "ERC20InvalidSender",
      "type": "error"
    },
    {
      "inputs": [
        {
          "internalType": "address",
          "name": "spender",
          "type": "address"
        }
      ],
      "name": "ERC20InvalidSpender",
      "type": "error"
    },
    {
      "anonymous": false,
      "inputs": [
        {
          "indexed": true,
          "internalType": "address",
          "name": "owner",
          "type": "address"
        },
        {
          "indexed": true,
          "internalType": "address",
          "name": "spender",
          "type": "address"
        },
        {
          "indexed": false,
          "internalType": "uint256",
          "name": "value",
          "type": "uint256"
        }
      ],
      "name": "Approval",
      "type": "event"
    },
    {
      "anonymous": false,
      "inputs": [
        {
          "indexed": true,
          "internalType": "address",
          "name": "from",
          "type": "address"
        },
        {
          "indexed": true,
          "internalType": "address",
          "name": "to",
          "type": "address"
        },
        {
          "indexed": false,
          "internalType": "uint256",
          "name": "value",
          "type": "uint256"
        }
      ],
      "name": "Transfer",
      "type": "event"
    },
    {
      "inputs": [
        {
          "internalType": "address",
          "name": "owner",
          "type": "address"
        },
        {
          "internalType": "address",
          "name": "spender",
          "type": "address"
        }
      ],
      "name": "allowance",
      "outputs": [
        {
          "internalType": "uint256",
          "name": "",
          "type": "uint256"
        }
      ],
      "stateMutability": "view",
      "type": "function"
    },
    {
      "inputs": [
        {
          "internalType": "address",
          "name": "spender",
          "type": "address"
        },
        {
          "internalType": "uint256",
          "name": "value",
          "type": "uint256"
        }
      ],
      "name": "approve",
      "outputs": [
        {
          "internalType": "bool",
          "name": "",
          "type": "bool"
        }
      ],
      "stateMutability": "nonpayable",
      "type": "function"
    },
    {
      "inputs": [
        {
          "internalType": "address",
          "name": "account",
          "type": "address"
        }
      ],
      "name": "balanceOf",
      "outputs": [
        {
          "internalType": "uint256",
          "name": "",
          "type": "uint256"
        }
      ],
      "stateMutability": "view",
      "type": "function"
    },
    {
      "inputs": [],
      "name": "decimals",
      "outputs": [
        {
          "internalType": "uint8",
          "name": "",
          "type": "uint8"
        }
      ],
      "stateMutability": "view",
      "type": "function"
    },
    {
      "inputs": [
        {
          "internalType": "uint256",
          "name": "_shareAmount",
          "type": "uint256"
        }
      ],
      "name": "getReward",
      "outputs": [
        {
          "internalType": "uint256",
          "name": "",
          "type": "uint256"
        }
      ],
      "stateMutability": "view",
      "type": "function"
    },
    {
      "inputs": [],
      "name": "name",
      "outputs": [
        {
          "internalType": "string",
          "name": "",
          "type": "string"
        }
      ],
      "stateMutability": "view",
      "type": "function"
    },
    {
      "inputs": [
        {
          "internalType": "uint256",
          "name": "_amount",
          "type": "uint256"
        }
      ],
      "name": "stake",
      "outputs": [],
      "stateMutability": "nonpayable",
      "type": "function"
    },
    {
      "inputs": [],
      "name": "stakingToken",
      "outputs": [
        {
          "internalType": "contract IERC20",
          "name": "",
          "type": "address"
        }
      ],
      "stateMutability": "view",
      "type": "function"
    },
    {
      "inputs": [],
      "name": "symbol",
      "outputs": [
        {
          "internalType": "string",
          "name": "",
          "type": "string"
        }
      ],
      "stateMutability": "view",
      "type": "function"
    },
    {
      "inputs": [],
      "name": "totalStaked",
      "outputs": [
        {
          "internalType": "uint256",
          "name": "",
          "type": "uint256"
        }
      ],
      "stateMutability": "view",
      "type": "function"
    },
    {
      "inputs": [],
      "name": "totalSupply",
      "outputs": [
        {
          "internalType": "uint256",
          "name": "",
          "type": "uint256"
        }
      ],
      "stateMutability": "view",
      "type": "function"
    },
    {
      "inputs": [
        {
          "internalType": "address",
          "name": "to",
          "type": "address"
        },
        {
          "internalType": "uint256",
          "name": "value",
          "type": "uint256"
        }
      ],
      "name": "transfer",
      "outputs": [
        {
          "internalType": "bool",
          "name": "",
          "type": "bool"
        }
      ],
      "stateMutability": "nonpayable",
      "type": "function"
    },
    {
      "inputs": [
        {
          "internalType": "address",
          "name": "from",
          "type": "address"
        },
        {
          "internalType": "address",
          "name": "to",
          "type": "address"
        },
        {
          "internalType": "uint256",
          "name": "value",
          "type": "uint256"
        }
      ],
      "name": "transferFrom",
      "outputs": [
        {
          "internalType": "bool",
          "name": "",
          "type": "bool"
        }
      ],
      "stateMutability": "nonpayable",
      "type": "function"
    },
    {
      "inputs": [
        {
          "internalType": "uint256",
          "name": "_shareAmount",
          "type": "uint256"
        }
      ],
      "name": "unstake",
      "outputs": [],
      "stateMutability": "nonpayable",
      "type": "function"
    }
  ],
  "bytecode": "0x60806040523480156200001157600080fd5b5060405162001f0438038062001f0483398181016040528101906200003791906200017b565b6040518060400160405280600d81526020017f5374616b696e67205368617265000000000000000000000000000000000000008152506040518060400160405280600581526020017f53484152450000000000000000000000000000000000000000000000000000008152508160039081620000b4919062000427565b508060049081620000c6919062000427565b50505080600560006101000a81548173ffffffffffffffffffffffffffffffffffffffff021916908373ffffffffffffffffffffffffffffffffffffffff160217905550506200050e565b600080fd5b600073ffffffffffffffffffffffffffffffffffffffff82169050919050565b6000620001438262000116565b9050919050565b620001558162000136565b81146200016157600080fd5b50565b60008151905062000175816200014a565b92915050565b60006020828403121562000194576200019362000111565b5b6000620001a48482850162000164565b91505092915050565b600081519050919050565b7f4e487b7100000000000000000000000000000000000000000000000000000000600052604160045260246000fd5b7f4e487b7100000000000000000000000000000000000000000000000000000000600052602260045260246000fd5b600060028204905060018216806200022f57607f821691505b602082108103620002455762000244620001e7565b5b50919050565b60008190508160005260206000209050919050565b60006020601f8301049050919050565b600082821b905092915050565b600060088302620002af7fffffffffffffffffffffffffffffffffffffffffffffffffffffffffffffffff8262000270565b620002bb868362000270565b95508019841693508086168417925050509392505050565b6000819050919050565b6000819050919050565b60006200030862000302620002fc84620002d3565b620002dd565b620002d3565b9050919050565b6000819050919050565b6200032483620002e7565b6200033c62000333826200030f565b8484546200027d565b825550505050565b600090565b6200035362000344565b6200036081848462000319565b505050565b5b8181101562000388576200037c60008262000349565b60018101905062000366565b5050565b601f821115620003d757620003a1816200024b565b620003ac8462000260565b81016020851015620003bc578190505b620003d4620003cb8562000260565b83018262000365565b50505b505050565b600082821c905092915050565b6000620003fc60001984600802620003dc565b1980831691505092915050565b6000620004178383620003e9565b9150826002028217905092915050565b6200043282620001ad565b67ffffffffffffffff8111156200044e576200044d620001b8565b5b6200045a825462000216565b620004678282856200038c565b600060209050601f8311600181146200049f57600084156200048a578287015190505b62000496858262000409565b86555062000506565b601f198416620004af866200024b565b60005b82811015620004d957848901518255600182019150602085019450602081019050620004b2565b86831015620004f95784890151620004f5601f891682620003e9565b8355505b6001600288020188555050505b505050505050565b6119e6806200051e6000396000f3fe608060405234801561001057600080fd5b50600436106100ea5760003560e01c806370a082311161008c57806395d89b411161006657806395d89b4114610261578063a694fc3a1461027f578063a9059cbb1461029b578063dd62ed3e146102cb576100ea565b806370a08231146101f557806372f702f314610225578063817b1cd214610243576100ea565b80631c4b774b116100c85780631c4b774b1461015b57806323b872dd1461018b5780632e17de78146101bb578063313ce567146101d7576100ea565b806306fdde03146100ef578063095ea7b31461010d57806318160ddd1461013d575b600080fd5b6100f76102fb565b60405161010491906111ec565b60405180910390f35b610127600480360381019061012291906112a7565b61038d565b6040516101349190611302565b60405180910390f35b6101456103b0565b604051610152919061132c565b60405180910390f35b61017560048036038101906101709190611347565b6103ba565b604051610182919061132c565b60405180910390f35b6101a560048036038101906101a09190611374565b610514565b6040516101b29190611302565b60405180910390f35b6101d560048036038101906101d09190611347565b610543565b005b6101df61071c565b6040516101ec91906113e3565b60405180910390f35b61020f600480360381019061020a91906113fe565b610725565b60405161021c919061132c565b60405180910390f35b61022d61076d565b60405161023a919061148a565b60405180910390f35b61024b610793565b604051610258919061132c565b60405180910390f35b610269610799565b60405161027691906111ec565b60405180910390f35b61029960048036038101906102949190611347565b61082b565b005b6102b560048036038101906102b091906112a7565b610a10565b6040516102c29190611302565b60405180910390f35b6102e560048036038101906102e091906114a5565b610a33565b6040516102f2919061132c565b60405180910390f35b60606003805461030a90611514565b80601f016020809104026020016040519081016040528092919081815260200182805461033690611514565b80156103835780601f1061035857610100808354040283529160200191610383565b820191906000526020600020905b81548152906001019060200180831161036657829003601f168201915b5050505050905090565b600080610398610aba565b90506103a5818585610ac2565b600191505092915050565b6000600254905090565b60008082116103fe576040517f08c379a00000000000000000000000000000000000000000000000000000000081526004016103f5906115b7565b60405180910390fd5b60006104086103b0565b11610448576040517f08c379a000000000000000000000000000000000000000000000000000000000815260040161043f90611623565b60405180910390fd5b6000600560009054906101000a900473ffffffffffffffffffffffffffffffffffffffff1673ffffffffffffffffffffffffffffffffffffffff166370a08231306040518263ffffffff1660e01b81526004016104a59190611652565b602060405180830381865afa1580156104c2573d6000803e3d6000fd5b505050506040513d601f19601f820116820180604052508101906104e69190611682565b905060006104f26103b0565b82856104fe91906116de565b610508919061174f565b90508092505050919050565b60008061051f610aba565b905061052c858285610ad4565b610537858585610b68565b60019150509392505050565b600560009054906101000a900473ffffffffffffffffffffffffffffffffffffffff1673ffffffffffffffffffffffffffffffffffffffff166370a08231306040518263ffffffff1660e01b815260040161059e9190611652565b602060405180830381865afa1580156105bb573d6000803e3d6000fd5b505050506040513d601f19601f820116820180604052508101906105df9190611682565b600681905550806105ef33610725565b1015610630576040517f08c379a0000000000000000000000000000000000000000000000000000000008152600401610627906117cc565b60405180910390fd5b600061063a6103b0565b6006548361064891906116de565b610652919061174f565b905061065e3383610c5c565b600560009054906101000a900473ffffffffffffffffffffffffffffffffffffffff1673ffffffffffffffffffffffffffffffffffffffff1663a9059cbb33836040518363ffffffff1660e01b81526004016106bb9291906117ec565b6020604051808303816000875af11580156106da573d6000803e3d6000fd5b505050506040513d601f19601f820116820180604052508101906106fe9190611841565b508060066000828254610711919061186e565b925050819055505050565b60006012905090565b60008060008373ffffffffffffffffffffffffffffffffffffffff1673ffffffffffffffffffffffffffffffffffffffff168152602001908152602001600020549050919050565b600560009054906101000a900473ffffffffffffffffffffffffffffffffffffffff1681565b60065481565b6060600480546107a890611514565b80601f01602080910402602001604051908101604052809291908181526020018280546107d490611514565b80156108215780601f106107f657610100808354040283529160200191610821565b820191906000526020600020905b81548152906001019060200180831161080457829003601f168201915b5050505050905090565b600560009054906101000a900473ffffffffffffffffffffffffffffffffffffffff1673ffffffffffffffffffffffffffffffffffffffff166370a08231306040518263ffffffff1660e01b81526004016108869190611652565b602060405180830381865afa1580156108a3573d6000803e3d6000fd5b505050506040513d601f19601f820116820180604052508101906108c79190611682565b60068190555060008111610910576040517f08c379a0000000000000000000000000000000000000000000000000000000008152600401610907906118ee565b60405180910390fd5b600560009054906101000a900473ffffffffffffffffffffffffffffffffffffffff1673ffffffffffffffffffffffffffffffffffffffff166323b872dd3330846040518463ffffffff1660e01b815260040161096f9392919061190e565b6020604051808303816000875af115801561098e573d6000803e3d6000fd5b505050506040513d601f19601f820116820180604052508101906109b29190611841565b50600080600654036109c6578190506109e9565b6006546109d16103b0565b836109dc91906116de565b6109e6919061174f565b90505b6109f33382610cde565b8160066000828254610a059190611945565b925050819055505050565b600080610a1b610aba565b9050610a28818585610b68565b600191505092915050565b6000600160008473ffffffffffffffffffffffffffffffffffffffff1673ffffffffffffffffffffffffffffffffffffffff16815260200190815260200160002060008373ffffffffffffffffffffffffffffffffffffffff1673ffffffffffffffffffffffffffffffffffffffff16815260200190815260200160002054905092915050565b600033905090565b610acf8383836001610d60565b505050565b6000610ae08484610a33565b90507fffffffffffffffffffffffffffffffffffffffffffffffffffffffffffffffff8114610b625781811015610b52578281836040517ffb8f41b2000000000000000000000000000000000000000000000000000000008152600401610b4993929190611979565b60405180910390fd5b610b6184848484036000610d60565b5b50505050565b600073ffffffffffffffffffffffffffffffffffffffff168373ffffffffffffffffffffffffffffffffffffffff1603610bda5760006040517f96c6fd1e000000000000000000000000000000000000000000000000000000008152600401610bd19190611652565b60405180910390fd5b600073ffffffffffffffffffffffffffffffffffffffff168273ffffffffffffffffffffffffffffffffffffffff1603610c4c5760006040517fec442f05000000000000000000000000000000000000000000000000000000008152600401610c439190611652565b60405180910390fd5b610c57838383610f37565b505050565b600073ffffffffffffffffffffffffffffffffffffffff168273ffffffffffffffffffffffffffffffffffffffff1603610cce5760006040517f96c6fd1e000000000000000000000000000000000000000000000000000000008152600401610cc59190611652565b60405180910390fd5b610cda82600083610f37565b5050565b600073ffffffffffffffffffffffffffffffffffffffff168273ffffffffffffffffffffffffffffffffffffffff1603610d505760006040517fec442f05000000000000000000000000000000000000000000000000000000008152600401610d479190611652565b60405180910390fd5b610d5c60008383610f37565b5050565b600073ffffffffffffffffffffffffffffffffffffffff168473ffffffffffffffffffffffffffffffffffffffff1603610dd25760006040517fe602df05000000000000000000000000000000000000000000000000000000008152600401610dc99190611652565b60405180910390fd5b600073ffffffffffffffffffffffffffffffffffffffff168373ffffffffffffffffffffffffffffffffffffffff1603610e445760006040517f94280d62000000000000000000000000000000000000000000000000000000008152600401610e3b9190611652565b60405180910390fd5b81600160008673ffffffffffffffffffffffffffffffffffffffff1673ffffffffffffffffffffffffffffffffffffffff16815260200190815260200160002060008573ffffffffffffffffffffffffffffffffffffffff1673ffffffffffffffffffffffffffffffffffffffff168152602001908152602001600020819055508015610f31578273ffffffffffffffffffffffffffffffffffffffff168473ffffffffffffffffffffffffffffffffffffffff167f8c5be1e5ebec7d5bd14f71427d1e84f3dd0314c0f7b2291e5b200ac8c7c3b92584604051610f28919061132c565b60405180910390a35b50505050565b600073ffffffffffffffffffffffffffffffffffffffff168373ffffffffffffffffffffffffffffffffffffffff1603610f89578060026000828254610f7d9190611945565b9250508190555061105c565b60008060008573ffffffffffffffffffffffffffffffffffffffff1673ffffffffffffffffffffffffffffffffffffffff16815260200190815260200160002054905081811015611015578381836040517fe450d38c00000000000000000000000000000000000000000000000000000000815260040161100c93929190611979565b60405180910390fd5b8181036000808673ffffffffffffffffffffffffffffffffffffffff1673ffffffffffffffffffffffffffffffffffffffff16815260200190815260200160002081905550505b600073ffffffffffffffffffffffffffffffffffffffff168273ffffffffffffffffffffffffffffffffffffffff16036110a557806002600082825403925050819055506110f2565b806000808473ffffffffffffffffffffffffffffffffffffffff1673ffffffffffffffffffffffffffffffffffffffff168152602001908152602001600020600082825401925050819055505b8173ffffffffffffffffffffffffffffffffffffffff168373ffffffffffffffffffffffffffffffffffffffff167fddf252ad1be2c89b69c2b068fc378daa952ba7f163c4a11628f55a4df523b3ef8360405161114f919061132c565b60405180910390a3505050565b600081519050919050565b600082825260208201905092915050565b60005b8381101561119657808201518184015260208101905061117b565b60008484015250505050565b6000601f19601f8301169050919050565b60006111be8261115c565b6111c88185611167565b93506111d8818560208601611178565b6111e1816111a2565b840191505092915050565b6000602082019050818103600083015261120681846111b3565b905092915050565b600080fd5b600073ffffffffffffffffffffffffffffffffffffffff82169050919050565b600061123e82611213565b9050919050565b61124e81611233565b811461125957600080fd5b50565b60008135905061126b81611245565b92915050565b6000819050919050565b61128481611271565b811461128f57600080fd5b50565b6000813590506112a18161127b565b92915050565b600080604083850312156112be576112bd61120e565b5b60006112cc8582860161125c565b92505060206112dd85828601611292565b9150509250929050565b60008115159050919050565b6112fc816112e7565b82525050565b600060208201905061131760008301846112f3565b92915050565b61132681611271565b82525050565b6000602082019050611341600083018461131d565b92915050565b60006020828403121561135d5761135c61120e565b5b600061136b84828501611292565b91505092915050565b60008060006060848603121561138d5761138c61120e565b5b600061139b8682870161125c565b93505060206113ac8682870161125c565b92505060406113bd86828701611292565b9150509250925092565b600060ff82169050919050565b6113dd816113c7565b82525050565b60006020820190506113f860008301846113d4565b92915050565b6000602082840312156114145761141361120e565b5b60006114228482850161125c565b91505092915050565b6000819050919050565b600061145061144b61144684611213565b61142b565b611213565b9050919050565b600061146282611435565b9050919050565b600061147482611457565b9050919050565b61148481611469565b82525050565b600060208201905061149f600083018461147b565b92915050565b600080604083850312156114bc576114bb61120e565b5b60006114ca8582860161125c565b92505060206114db8582860161125c565b9150509250929050565b7f4e487b7100000000000000000000000000000000000000000000000000000000600052602260045260246000fd5b6000600282049050600182168061152c57607f821691505b60208210810361153f5761153e6114e5565b5b50919050565b7f536861726520616d6f756e74206d75737420626520677265617465722074686160008201527f6e20300000000000000000000000000000000000000000000000000000000000602082015250565b60006115a1602383611167565b91506115ac82611545565b604082019050919050565b600060208201905081810360008301526115d081611594565b9050919050565b7f4e6f207368617265732068617665206265656e206d696e746564000000000000600082015250565b600061160d601a83611167565b9150611618826115d7565b602082019050919050565b6000602082019050818103600083015261163c81611600565b9050919050565b61164c81611233565b82525050565b60006020820190506116676000830184611643565b92915050565b60008151905061167c8161127b565b92915050565b6000602082840312156116985761169761120e565b5b60006116a68482850161166d565b91505092915050565b7f4e487b7100000000000000000000000000000000000000000000000000000000600052601160045260246000fd5b60006116e982611271565b91506116f483611271565b925082820261170281611271565b91508282048414831517611719576117186116af565b5b5092915050565b7f4e487b7100000000000000000000000000000000000000000000000000000000600052601260045260246000fd5b600061175a82611271565b915061176583611271565b92508261177557611774611720565b5b828204905092915050565b7f4e6f7420656e6f75676820736861726573000000000000000000000000000000600082015250565b60006117b6601183611167565b91506117c182611780565b602082019050919050565b600060208201905081810360008301526117e5816117a9565b9050919050565b60006040820190506118016000830185611643565b61180e602083018461131d565b9392505050565b61181e816112e7565b811461182957600080fd5b50565b60008151905061183b81611815565b92915050565b6000602082840312156118575761185661120e565b5b60006118658482850161182c565b91505092915050565b600061187982611271565b915061188483611271565b925082820390508181111561189c5761189b6116af565b5b92915050565b7f416d6f756e74206d7573742062652067726561746572207468616e2030000000600082015250565b60006118d8601d83611167565b91506118e3826118a2565b602082019050919050565b60006020820190508181036000830152611907816118cb565b9050919050565b60006060820190506119236000830186611643565b6119306020830185611643565b61193d604083018461131d565b949350505050565b600061195082611271565b915061195b83611271565b9250828201905080821115611973576119726116af565b5b92915050565b600060608201905061198e6000830186611643565b61199b602083018561131d565b6119a8604083018461131d565b94935050505056fea264697066735822122003d094945544e90c6f382bca8ab385b77b9029c099cb2d3c79f84e89504b70b664736f6c63430008140033",
  "linkReferences": {},
  "deployedLinkReferences": {}
}