{
  "_format": "hh-sol-artifact-1",
  "contractName": "UniswapV2Pair",
  "sourceName": "contracts/UniswapV2Pair.sol",
  "abi": [
    {
      "inputs": [
        {
          "internalType": "address",
          "name": "_token0",
          "type": "address"
        },
        {
          "internalType": "address",
          "name": "_token1",
          "type": "address"
        }
      ],
      "stateMutability": "nonpayable",
      "type": "constructor"
    },
    {
      "anonymous": false,
      "inputs": [
        {
          "indexed": true,
          "internalType": "address",
          "name": "owner",
          "type": "address"
        },
        {
          "indexed": true,
          "internalType": "address",
          "name": "spender",
          "type": "address"
        },
        {
          "indexed": false,
          "internalType": "uint256",
          "name": "value",
          "type": "uint256"
        }
      ],
      "name": "Approval",
      "type": "event"
    },
    {
      "anonymous": false,
      "inputs": [
        {
          "indexed": true,
          "internalType": "address",
          "name": "sender",
          "type": "address"
        },
        {
          "indexed": false,
          "internalType": "uint256",
          "name": "amount0",
          "type": "uint256"
        },
        {
          "indexed": false,
          "internalType": "uint256",
          "name": "amount1",
          "type": "uint256"
        },
        {
          "indexed": true,
          "internalType": "address",
          "name": "to",
          "type": "address"
        }
      ],
      "name": "Burn",
      "type": "event"
    },
    {
      "anonymous": false,
      "inputs": [
        {
          "indexed": true,
          "internalType": "address",
          "name": "sender",
          "type": "address"
        },
        {
          "indexed": false,
          "internalType": "uint256",
          "name": "amount0",
          "type": "uint256"
        },
        {
          "indexed": false,
          "internalType": "uint256",
          "name": "amount1",
          "type": "uint256"
        }
      ],
      "name": "Mint",
      "type": "event"
    },
    {
      "anonymous": false,
      "inputs": [
        {
          "indexed": true,
          "internalType": "address",
          "name": "sender",
          "type": "address"
        },
        {
          "indexed": false,
          "internalType": "uint256",
          "name": "amount0In",
          "type": "uint256"
        },
        {
          "indexed": false,
          "internalType": "uint256",
          "name": "amount1In",
          "type": "uint256"
        },
        {
          "indexed": false,
          "internalType": "uint256",
          "name": "amount0Out",
          "type": "uint256"
        },
        {
          "indexed": false,
          "internalType": "uint256",
          "name": "amount1Out",
          "type": "uint256"
        },
        {
          "indexed": true,
          "internalType": "address",
          "name": "to",
          "type": "address"
        }
      ],
      "name": "Swap",
      "type": "event"
    },
    {
      "anonymous": false,
      "inputs": [
        {
          "indexed": false,
          "internalType": "uint112",
          "name": "reserve0",
          "type": "uint112"
        },
        {
          "indexed": false,
          "internalType": "uint112",
          "name": "reserve1",
          "type": "uint112"
        }
      ],
      "name": "Sync",
      "type": "event"
    },
    {
      "anonymous": false,
      "inputs": [
        {
          "indexed": true,
          "internalType": "address",
          "name": "from",
          "type": "address"
        },
        {
          "indexed": true,
          "internalType": "address",
          "name": "to",
          "type": "address"
        },
        {
          "indexed": false,
          "internalType": "uint256",
          "name": "value",
          "type": "uint256"
        }
      ],
      "name": "Transfer",
      "type": "event"
    },
    {
      "inputs": [],
      "name": "DOMAIN_SEPARATOR",
      "outputs": [
        {
          "internalType": "bytes32",
          "name": "",
          "type": "bytes32"
        }
      ],
      "stateMutability": "view",
      "type": "function"
    },
    {
      "inputs": [],
      "name": "MINIMUM_LIQUIDITY",
      "outputs": [
        {
          "internalType": "uint256",
          "name": "",
          "type": "uint256"
        }
      ],
      "stateMutability": "view",
      "type": "function"
    },
    {
      "inputs": [],
      "name": "PERMIT_TYPEHASH",
      "outputs": [
        {
          "internalType": "bytes32",
          "name": "",
          "type": "bytes32"
        }
      ],
      "stateMutability": "view",
      "type": "function"
    },
    {
      "inputs": [
        {
          "internalType": "address",
          "name": "",
          "type": "address"
        },
        {
          "internalType": "address",
          "name": "",
          "type": "address"
        }
      ],
      "name": "allowance",
      "outputs": [
        {
          "internalType": "uint256",
          "name": "",
          "type": "uint256"
        }
      ],
      "stateMutability": "view",
      "type": "function"
    },
    {
      "inputs": [
        {
          "internalType": "address",
          "name": "spender",
          "type": "address"
        },
        {
          "internalType": "uint256",
          "name": "value",
          "type": "uint256"
        }
      ],
      "name": "approve",
      "outputs": [
        {
          "internalType": "bool",
          "name": "",
          "type": "bool"
        }
      ],
      "stateMutability": "nonpayable",
      "type": "function"
    },
    {
      "inputs": [
        {
          "internalType": "address",
          "name": "",
          "type": "address"
        }
      ],
      "name": "balanceOf",
      "outputs": [
        {
          "internalType": "uint256",
          "name": "",
          "type": "uint256"
        }
      ],
      "stateMutability": "view",
      "type": "function"
    },
    {
      "inputs": [
        {
          "internalType": "address",
          "name": "to",
          "type": "address"
        }
      ],
      "name": "burn",
      "outputs": [
        {
          "internalType": "uint256",
          "name": "amount0",
          "type": "uint256"
        },
        {
          "internalType": "uint256",
          "name": "amount1",
          "type": "uint256"
        }
      ],
      "stateMutability": "nonpayable",
      "type": "function"
    },
    {
      "inputs": [],
      "name": "decimals",
      "outputs": [
        {
          "internalType": "uint8",
          "name": "",
          "type": "uint8"
        }
      ],
      "stateMutability": "view",
      "type": "function"
    },
    {
      "inputs": [],
      "name": "getReserves",
      "outputs": [
        {
          "internalType": "uint112",
          "name": "_reserve0",
          "type": "uint112"
        },
        {
          "internalType": "uint112",
          "name": "_reserve1",
          "type": "uint112"
        },
        {
          "internalType": "uint32",
          "name": "_blockTimestampLast",
          "type": "uint32"
        }
      ],
      "stateMutability": "view",
      "type": "function"
    },
    {
      "inputs": [],
      "name": "kLast",
      "outputs": [
        {
          "internalType": "uint256",
          "name": "",
          "type": "uint256"
        }
      ],
      "stateMutability": "view",
      "type": "function"
    },
    {
      "inputs": [
        {
          "internalType": "address",
          "name": "to",
          "type": "address"
        }
      ],
      "name": "mint",
      "outputs": [
        {
          "internalType": "uint256",
          "name": "liquidity",
          "type": "uint256"
        }
      ],
      "stateMutability": "nonpayable",
      "type": "function"
    },
    {
      "inputs": [],
      "name": "name",
      "outputs": [
        {
          "internalType": "string",
          "name": "",
          "type": "string"
        }
      ],
      "stateMutability": "view",
      "type": "function"
    },
    {
      "inputs": [
        {
          "internalType": "address",
          "name": "",
          "type": "address"
        }
      ],
      "name": "nonces",
      "outputs": [
        {
          "internalType": "uint256",
          "name": "",
          "type": "uint256"
        }
      ],
      "stateMutability": "view",
      "type": "function"
    },
    {
      "inputs": [
        {
          "internalType": "address",
          "name": "owner",
          "type": "address"
        },
        {
          "internalType": "address",
          "name": "spender",
          "type": "address"
        },
        {
          "internalType": "uint256",
          "name": "value",
          "type": "uint256"
        },
        {
          "internalType": "uint256",
          "name": "deadline",
          "type": "uint256"
        },
        {
          "internalType": "uint8",
          "name": "v",
          "type": "uint8"
        },
        {
          "internalType": "bytes32",
          "name": "r",
          "type": "bytes32"
        },
        {
          "internalType": "bytes32",
          "name": "s",
          "type": "bytes32"
        }
      ],
      "name": "permit",
      "outputs": [],
      "stateMutability": "nonpayable",
      "type": "function"
    },
    {
      "inputs": [],
      "name": "price0CumulativeLast",
      "outputs": [
        {
          "internalType": "uint256",
          "name": "",
          "type": "uint256"
        }
      ],
      "stateMutability": "view",
      "type": "function"
    },
    {
      "inputs": [],
      "name": "price1CumulativeLast",
      "outputs": [
        {
          "internalType": "uint256",
          "name": "",
          "type": "uint256"
        }
      ],
      "stateMutability": "view",
      "type": "function"
    },
    {
      "inputs": [
        {
          "internalType": "address",
          "name": "to",
          "type": "address"
        }
      ],
      "name": "skim",
      "outputs": [],
      "stateMutability": "nonpayable",
      "type": "function"
    },
    {
      "inputs": [
        {
          "internalType": "uint256",
          "name": "amount0Out",
          "type": "uint256"
        },
        {
          "internalType": "uint256",
          "name": "amount1Out",
          "type": "uint256"
        },
        {
          "internalType": "address",
          "name": "to",
          "type": "address"
        },
        {
          "internalType": "bytes",
          "name": "data",
          "type": "bytes"
        }
      ],
      "name": "swap",
      "outputs": [],
      "stateMutability": "nonpayable",
      "type": "function"
    },
    {
      "inputs": [],
      "name": "symbol",
      "outputs": [
        {
          "internalType": "string",
          "name": "",
          "type": "string"
        }
      ],
      "stateMutability": "view",
      "type": "function"
    },
    {
      "inputs": [],
      "name": "sync",
      "outputs": [],
      "stateMutability": "nonpayable",
      "type": "function"
    },
    {
      "inputs": [],
      "name": "token0",
      "outputs": [
        {
          "internalType": "address",
          "name": "",
          "type": "address"
        }
      ],
      "stateMutability": "view",
      "type": "function"
    },
    {
      "inputs": [],
      "name": "token1",
      "outputs": [
        {
          "internalType": "address",
          "name": "",
          "type": "address"
        }
      ],
      "stateMutability": "view",
      "type": "function"
    },
    {
      "inputs": [],
      "name": "totalSupply",
      "outputs": [
        {
          "internalType": "uint256",
          "name": "",
          "type": "uint256"
        }
      ],
      "stateMutability": "view",
      "type": "function"
    },
    {
      "inputs": [
        {
          "internalType": "address",
          "name": "to",
          "type": "address"
        },
        {
          "internalType": "uint256",
          "name": "value",
          "type": "uint256"
        }
      ],
      "name": "transfer",
      "outputs": [
        {
          "internalType": "bool",
          "name": "",
          "type": "bool"
        }
      ],
      "stateMutability": "nonpayable",
      "type": "function"
    },
    {
      "inputs": [
        {
          "internalType": "address",
          "name": "from",
          "type": "address"
        },
        {
          "internalType": "address",
          "name": "to",
          "type": "address"
        },
        {
          "internalType": "uint256",
          "name": "value",
          "type": "uint256"
        }
      ],
      "name": "transferFrom",
      "outputs": [
        {
          "internalType": "bool",
          "name": "",
          "type": "bool"
        }
      ],
      "stateMutability": "nonpayable",
      "type": "function"
    }
  ],
  "bytecode": "0x60806040526001600b553480156200001657600080fd5b5060405162003dec38038062003dec83398181016040528101906200003c9190620001ff565b7f8b73c3c69bb8fe3d512ecc4cf759cc79239f7b179b0ffacaa9a75d522b39400f6040518060400160405280600a81526020017f556e697377617020563200000000000000000000000000000000000000000000815250805190602001206040518060400160405280600181526020017f3100000000000000000000000000000000000000000000000000000000000000815250805190602001204630604051602001620000ef9594939291906200028d565b6040516020818303038152906040528051906020012060038190555081600560006101000a81548173ffffffffffffffffffffffffffffffffffffffff021916908373ffffffffffffffffffffffffffffffffffffffff16021790555080600660006101000a81548173ffffffffffffffffffffffffffffffffffffffff021916908373ffffffffffffffffffffffffffffffffffffffff1602179055505050620002ea565b600080fd5b600073ffffffffffffffffffffffffffffffffffffffff82169050919050565b6000620001c7826200019a565b9050919050565b620001d981620001ba565b8114620001e557600080fd5b50565b600081519050620001f981620001ce565b92915050565b6000806040838503121562000219576200021862000195565b5b60006200022985828601620001e8565b92505060206200023c85828601620001e8565b9150509250929050565b6000819050919050565b6200025b8162000246565b82525050565b6000819050919050565b620002768162000261565b82525050565b6200028781620001ba565b82525050565b600060a082019050620002a4600083018862000250565b620002b3602083018762000250565b620002c2604083018662000250565b620002d160608301856200026b565b620002e060808301846200027c565b9695505050505050565b613af280620002fa6000396000f3fe608060405234801561001057600080fd5b50600436106101735760003560e01c80636a627842116100de578063a9059cbb11610097578063d21220a711610071578063d21220a71461046b578063d505accf14610489578063dd62ed3e146104a5578063fff6cae9146104d557610173565b8063a9059cbb14610401578063ba9a7a5614610431578063bc25cf771461044f57610173565b80636a6278421461030457806370a08231146103345780637464fc3d146103645780637ecebe001461038257806389afcb44146103b257806395d89b41146103e357610173565b806323b872dd1161013057806323b872dd1461023e57806330adf81f1461026e578063313ce5671461028c5780633644e515146102aa5780635909c0d5146102c85780635a3d5493146102e657610173565b8063022c0d9f1461017857806306fdde03146101945780630902f1ac146101b2578063095ea7b3146101d25780630dfe16811461020257806318160ddd14610220575b600080fd5b610192600480360381019061018d91906128d4565b6104df565b005b61019c610b31565b6040516101a991906129ec565b60405180910390f35b6101ba610b6a565b6040516101c993929190612a56565b60405180910390f35b6101ec60048036038101906101e79190612a8d565b610bc7565b6040516101f99190612ae8565b60405180910390f35b61020a610bde565b6040516102179190612b12565b60405180910390f35b610228610c04565b6040516102359190612b3c565b60405180910390f35b61025860048036038101906102539190612b57565b610c0a565b6040516102659190612ae8565b60405180910390f35b610276610dd5565b6040516102839190612bc3565b60405180910390f35b610294610dfc565b6040516102a19190612bfa565b60405180910390f35b6102b2610e01565b6040516102bf9190612bc3565b60405180910390f35b6102d0610e07565b6040516102dd9190612b3c565b60405180910390f35b6102ee610e0d565b6040516102fb9190612b3c565b60405180910390f35b61031e60048036038101906103199190612c15565b610e13565b60405161032b9190612b3c565b60405180910390f35b61034e60048036038101906103499190612c15565b611175565b60405161035b9190612b3c565b60405180910390f35b61036c61118d565b6040516103799190612b3c565b60405180910390f35b61039c60048036038101906103979190612c15565b611193565b6040516103a99190612b3c565b60405180910390f35b6103cc60048036038101906103c79190612c15565b6111ab565b6040516103da929190612c42565b60405180910390f35b6103eb6115ce565b6040516103f891906129ec565b60405180910390f35b61041b60048036038101906104169190612a8d565b611607565b6040516104289190612ae8565b60405180910390f35b61043961161e565b6040516104469190612b3c565b60405180910390f35b61046960048036038101906104649190612c15565b611624565b005b610473611850565b6040516104809190612b12565b60405180910390f35b6104a3600480360381019061049e9190612cc3565b611876565b005b6104bf60048036038101906104ba9190612d65565b611a9e565b6040516104cc9190612b3c565b60405180910390f35b6104dd611ac3565b005b6001600b5414610524576040517f08c379a000000000000000000000000000000000000000000000000000000000815260040161051b90612df1565b60405180910390fd5b6000600b81905550600085118061053b5750600084115b61057a576040517f08c379a000000000000000000000000000000000000000000000000000000000815260040161057190612e83565b60405180910390fd5b600080610585610b6a565b5091509150816dffffffffffffffffffffffffffff16871080156105b85750806dffffffffffffffffffffffffffff1686105b6105f7576040517f08c379a00000000000000000000000000000000000000000000000000000000081526004016105ee90612f15565b60405180910390fd5b6000806000600560009054906101000a900473ffffffffffffffffffffffffffffffffffffffff1690506000600660009054906101000a900473ffffffffffffffffffffffffffffffffffffffff1690508173ffffffffffffffffffffffffffffffffffffffff168973ffffffffffffffffffffffffffffffffffffffff16141580156106b057508073ffffffffffffffffffffffffffffffffffffffff168973ffffffffffffffffffffffffffffffffffffffff1614155b6106ef576040517f08c379a00000000000000000000000000000000000000000000000000000000081526004016106e690612f81565b60405180910390fd5b60008b111561070457610703828a8d611c94565b5b60008a111561071957610718818a8c611c94565b5b6000888890501115610799578873ffffffffffffffffffffffffffffffffffffffff166310d1e85c338d8d8c8c6040518663ffffffff1660e01b8152600401610766959493929190612fee565b600060405180830381600087803b15801561078057600080fd5b505af1158015610794573d6000803e3d6000fd5b505050505b8173ffffffffffffffffffffffffffffffffffffffff166370a08231306040518263ffffffff1660e01b81526004016107d29190612b12565b602060405180830381865afa1580156107ef573d6000803e3d6000fd5b505050506040513d601f19601f820116820180604052508101906108139190613051565b93508073ffffffffffffffffffffffffffffffffffffffff166370a08231306040518263ffffffff1660e01b815260040161084e9190612b12565b602060405180830381865afa15801561086b573d6000803e3d6000fd5b505050506040513d601f19601f8201168201806040525081019061088f9190613051565b92505050600089856dffffffffffffffffffffffffffff166108b191906130ad565b83116108be5760006108e6565b89856dffffffffffffffffffffffffffff166108da91906130ad565b836108e591906130ad565b5b9050600089856dffffffffffffffffffffffffffff1661090691906130ad565b831161091357600061093b565b89856dffffffffffffffffffffffffffff1661092f91906130ad565b8361093a91906130ad565b5b9050600082118061094c5750600081115b61098b576040517f08c379a000000000000000000000000000000000000000000000000000000000815260040161098290613153565b60405180910390fd5b60006109c76109a4600385611e1e90919063ffffffff16565b6109b96103e888611e1e90919063ffffffff16565b611e8b90919063ffffffff16565b90506000610a056109e2600385611e1e90919063ffffffff16565b6109f76103e888611e1e90919063ffffffff16565b611e8b90919063ffffffff16565b9050610a4f620f4240610a41896dffffffffffffffffffffffffffff168b6dffffffffffffffffffffffffffff16611e1e90919063ffffffff16565b611e1e90919063ffffffff16565b610a628284611e1e90919063ffffffff16565b1015610aa3576040517f08c379a0000000000000000000000000000000000000000000000000000000008152600401610a9a906131bf565b60405180910390fd5b5050610ab184848888611ee4565b8873ffffffffffffffffffffffffffffffffffffffff163373ffffffffffffffffffffffffffffffffffffffff167fd78ad95fa46c994b6551d0da85fc275fe613ce37657fb8d5e3d130840159d82284848f8f604051610b1494939291906131df565b60405180910390a35050505050506001600b819055505050505050565b6040518060400160405280600a81526020017f556e69737761702056320000000000000000000000000000000000000000000081525081565b6000806000600760009054906101000a90046dffffffffffffffffffffffffffff1692506007600e9054906101000a90046dffffffffffffffffffffffffffff1691506007601c9054906101000a900463ffffffff169050909192565b6000610bd43384846121d8565b6001905092915050565b600560009054906101000a900473ffffffffffffffffffffffffffffffffffffffff1681565b60005481565b60007fffffffffffffffffffffffffffffffffffffffffffffffffffffffffffffffff600260008673ffffffffffffffffffffffffffffffffffffffff1673ffffffffffffffffffffffffffffffffffffffff16815260200190815260200160002060003373ffffffffffffffffffffffffffffffffffffffff1673ffffffffffffffffffffffffffffffffffffffff1681526020019081526020016000205414610dbf57610d3e82600260008773ffffffffffffffffffffffffffffffffffffffff1673ffffffffffffffffffffffffffffffffffffffff16815260200190815260200160002060003373ffffffffffffffffffffffffffffffffffffffff1673ffffffffffffffffffffffffffffffffffffffff16815260200190815260200160002054611e8b90919063ffffffff16565b600260008673ffffffffffffffffffffffffffffffffffffffff1673ffffffffffffffffffffffffffffffffffffffff16815260200190815260200160002060003373ffffffffffffffffffffffffffffffffffffffff1673ffffffffffffffffffffffffffffffffffffffff168152602001908152602001600020819055505b610dca8484846122c3565b600190509392505050565b7f6e71edae12b1b97f4d1f60370fef10105fa2faae0126114a169c64845d6126c960001b81565b601281565b60035481565b60085481565b60095481565b60006001600b5414610e5a576040517f08c379a0000000000000000000000000000000000000000000000000000000008152600401610e5190612df1565b60405180910390fd5b6000600b81905550600080610e6d610b6a565b50915091506000600560009054906101000a900473ffffffffffffffffffffffffffffffffffffffff1673ffffffffffffffffffffffffffffffffffffffff166370a08231306040518263ffffffff1660e01b8152600401610ecf9190612b12565b602060405180830381865afa158015610eec573d6000803e3d6000fd5b505050506040513d601f19601f82011682018060405250810190610f109190613051565b90506000600660009054906101000a900473ffffffffffffffffffffffffffffffffffffffff1673ffffffffffffffffffffffffffffffffffffffff166370a08231306040518263ffffffff1660e01b8152600401610f6f9190612b12565b602060405180830381865afa158015610f8c573d6000803e3d6000fd5b505050506040513d601f19601f82011682018060405250810190610fb09190613051565b90506000610fd7856dffffffffffffffffffffffffffff1684611e8b90919063ffffffff16565b90506000610ffe856dffffffffffffffffffffffffffff1684611e8b90919063ffffffff16565b9050600080549050600081036110515761103d6103e861102f61102a8587611e1e90919063ffffffff16565b612457565b611e8b90919063ffffffff16565b975061104c60006103e86124d1565b6110b8565b6110b5876dffffffffffffffffffffffffffff166110788386611e1e90919063ffffffff16565b6110829190613253565b876dffffffffffffffffffffffffffff166110a68486611e1e90919063ffffffff16565b6110b09190613253565b6125eb565b97505b600088116110fb576040517f08c379a00000000000000000000000000000000000000000000000000000000081526004016110f2906132f6565b60405180910390fd5b61110589896124d1565b61111185858989611ee4565b3373ffffffffffffffffffffffffffffffffffffffff167f4c209b5fc8ad50758f13e2e1088ba56a560dff690a1c6fef26394f4c03821c4f8484604051611159929190612c42565b60405180910390a2505050505050506001600b81905550919050565b60016020528060005260406000206000915090505481565b600a5481565b60046020528060005260406000206000915090505481565b6000806001600b54146111f3576040517f08c379a00000000000000000000000000000000000000000000000000000000081526004016111ea90612df1565b60405180910390fd5b6000600b81905550600080611206610b6a565b50915091506000600560009054906101000a900473ffffffffffffffffffffffffffffffffffffffff1690506000600660009054906101000a900473ffffffffffffffffffffffffffffffffffffffff16905060008273ffffffffffffffffffffffffffffffffffffffff166370a08231306040518263ffffffff1660e01b81526004016112949190612b12565b602060405180830381865afa1580156112b1573d6000803e3d6000fd5b505050506040513d601f19601f820116820180604052508101906112d59190613051565b905060008273ffffffffffffffffffffffffffffffffffffffff166370a08231306040518263ffffffff1660e01b81526004016113129190612b12565b602060405180830381865afa15801561132f573d6000803e3d6000fd5b505050506040513d601f19601f820116820180604052508101906113539190613051565b90506000600160003073ffffffffffffffffffffffffffffffffffffffff1673ffffffffffffffffffffffffffffffffffffffff168152602001908152602001600020549050600080549050806113b38584611e1e90919063ffffffff16565b6113bd9190613253565b9950806113d38484611e1e90919063ffffffff16565b6113dd9190613253565b985060008a1180156113ef5750600089115b61142e576040517f08c379a000000000000000000000000000000000000000000000000000000000815260040161142590613388565b60405180910390fd5b6114383083612604565b611443868c8c611c94565b61144e858c8b611c94565b8573ffffffffffffffffffffffffffffffffffffffff166370a08231306040518263ffffffff1660e01b81526004016114879190612b12565b602060405180830381865afa1580156114a4573d6000803e3d6000fd5b505050506040513d601f19601f820116820180604052508101906114c89190613051565b93508473ffffffffffffffffffffffffffffffffffffffff166370a08231306040518263ffffffff1660e01b81526004016115039190612b12565b602060405180830381865afa158015611520573d6000803e3d6000fd5b505050506040513d601f19601f820116820180604052508101906115449190613051565b925061155284848a8a611ee4565b8a73ffffffffffffffffffffffffffffffffffffffff163373ffffffffffffffffffffffffffffffffffffffff167fdccd412f0b1252819cb1fd330b93224ca42612892bb3f4f789976e6d819364968c8c6040516115b1929190612c42565b60405180910390a350505050505050506001600b81905550915091565b6040518060400160405280600681526020017f554e492d5632000000000000000000000000000000000000000000000000000081525081565b60006116143384846122c3565b6001905092915050565b6103e881565b6001600b5414611669576040517f08c379a000000000000000000000000000000000000000000000000000000000815260040161166090612df1565b60405180910390fd5b6000600b819055506000600560009054906101000a900473ffffffffffffffffffffffffffffffffffffffff1690506000600660009054906101000a900473ffffffffffffffffffffffffffffffffffffffff169050611781828461177c600760009054906101000a90046dffffffffffffffffffffffffffff166dffffffffffffffffffffffffffff168673ffffffffffffffffffffffffffffffffffffffff166370a08231306040518263ffffffff1660e01b815260040161172d9190612b12565b602060405180830381865afa15801561174a573d6000803e3d6000fd5b505050506040513d601f19601f8201168201806040525081019061176e9190613051565b611e8b90919063ffffffff16565b611c94565b611843818461183e6007600e9054906101000a90046dffffffffffffffffffffffffffff166dffffffffffffffffffffffffffff168573ffffffffffffffffffffffffffffffffffffffff166370a08231306040518263ffffffff1660e01b81526004016117ef9190612b12565b602060405180830381865afa15801561180c573d6000803e3d6000fd5b505050506040513d601f19601f820116820180604052508101906118309190613051565b611e8b90919063ffffffff16565b611c94565b50506001600b8190555050565b600660009054906101000a900473ffffffffffffffffffffffffffffffffffffffff1681565b428410156118b9576040517f08c379a00000000000000000000000000000000000000000000000000000000081526004016118b0906133f4565b60405180910390fd5b60006003547f6e71edae12b1b97f4d1f60370fef10105fa2faae0126114a169c64845d6126c960001b898989600460008e73ffffffffffffffffffffffffffffffffffffffff1673ffffffffffffffffffffffffffffffffffffffff168152602001908152602001600020600081548092919061193590613414565b919050558a60405160200161194f9695949392919061345c565b60405160208183030381529060405280519060200120604051602001611976929190613535565b6040516020818303038152906040528051906020012090506000600182868686604051600081526020016040526040516119b3949392919061356c565b6020604051602081039080840390855afa1580156119d5573d6000803e3d6000fd5b505050602060405103519050600073ffffffffffffffffffffffffffffffffffffffff168173ffffffffffffffffffffffffffffffffffffffff1614158015611a4957508873ffffffffffffffffffffffffffffffffffffffff168173ffffffffffffffffffffffffffffffffffffffff16145b611a88576040517f08c379a0000000000000000000000000000000000000000000000000000000008152600401611a7f906135fd565b60405180910390fd5b611a938989896121d8565b505050505050505050565b6002602052816000526040600020602052806000526040600020600091509150505481565b6001600b5414611b08576040517f08c379a0000000000000000000000000000000000000000000000000000000008152600401611aff90612df1565b60405180910390fd5b6000600b81905550611c8a600560009054906101000a900473ffffffffffffffffffffffffffffffffffffffff1673ffffffffffffffffffffffffffffffffffffffff166370a08231306040518263ffffffff1660e01b8152600401611b6e9190612b12565b602060405180830381865afa158015611b8b573d6000803e3d6000fd5b505050506040513d601f19601f82011682018060405250810190611baf9190613051565b600660009054906101000a900473ffffffffffffffffffffffffffffffffffffffff1673ffffffffffffffffffffffffffffffffffffffff166370a08231306040518263ffffffff1660e01b8152600401611c0a9190612b12565b602060405180830381865afa158015611c27573d6000803e3d6000fd5b505050506040513d601f19601f82011682018060405250810190611c4b9190613051565b600760009054906101000a90046dffffffffffffffffffffffffffff166007600e9054906101000a90046dffffffffffffffffffffffffffff16611ee4565b6001600b81905550565b6000808473ffffffffffffffffffffffffffffffffffffffff166040518060400160405280601981526020017f7472616e7366657228616464726573732c75696e743235362900000000000000815250805190602001208585604051602401611cfe92919061361d565b604051602081830303815290604052907bffffffffffffffffffffffffffffffffffffffffffffffffffffffff19166020820180517bffffffffffffffffffffffffffffffffffffffffffffffffffffffff8381831617835250505050604051611d68919061368d565b6000604051808303816000865af19150503d8060008114611da5576040519150601f19603f3d011682016040523d82523d6000602084013e611daa565b606091505b5091509150818015611dd85750600081511480611dd7575080806020019051810190611dd691906136d0565b5b5b611e17576040517f08c379a0000000000000000000000000000000000000000000000000000000008152600401611e0e90613749565b60405180910390fd5b5050505050565b600080821480611e46575082828385611e379190613769565b925082611e449190613253565b145b611e85576040517f08c379a0000000000000000000000000000000000000000000000000000000008152600401611e7c906137f7565b60405180910390fd5b92915050565b6000828284611e9a91906130ad565b9150811115611ede576040517f08c379a0000000000000000000000000000000000000000000000000000000008152600401611ed590613863565b60405180910390fd5b92915050565b6dffffffffffffffffffffffffffff80168411158015611f1457506dffffffffffffffffffffffffffff80168311155b611f53576040517f08c379a0000000000000000000000000000000000000000000000000000000008152600401611f4a906138cf565b60405180910390fd5b600064010000000042611f6691906138ef565b905060006007601c9054906101000a900463ffffffff1682611f889190613920565b905060008163ffffffff16118015611fb157506000846dffffffffffffffffffffffffffff1614155b8015611fce57506000836dffffffffffffffffffffffffffff1614155b156120d4578063ffffffff1661201385611fe78661271e565b7bffffffffffffffffffffffffffffffffffffffffffffffffffffffff1661275290919063ffffffff16565b7bffffffffffffffffffffffffffffffffffffffffffffffffffffffff1661203b9190613769565b6008600082825461204c9190613958565b925050819055508063ffffffff16612093846120678761271e565b7bffffffffffffffffffffffffffffffffffffffffffffffffffffffff1661275290919063ffffffff16565b7bffffffffffffffffffffffffffffffffffffffffffffffffffffffff166120bb9190613769565b600960008282546120cc9190613958565b925050819055505b85600760006101000a8154816dffffffffffffffffffffffffffff02191690836dffffffffffffffffffffffffffff160217905550846007600e6101000a8154816dffffffffffffffffffffffffffff02191690836dffffffffffffffffffffffffffff160217905550816007601c6101000a81548163ffffffff021916908363ffffffff1602179055507f1c411e9a96e071241c2f21f7726b17ae89e3cab4c78be50e062b03a9fffbbad1600760009054906101000a90046dffffffffffffffffffffffffffff166007600e9054906101000a90046dffffffffffffffffffffffffffff166040516121c892919061398c565b60405180910390a1505050505050565b80600260008573ffffffffffffffffffffffffffffffffffffffff1673ffffffffffffffffffffffffffffffffffffffff16815260200190815260200160002060008473ffffffffffffffffffffffffffffffffffffffff1673ffffffffffffffffffffffffffffffffffffffff168152602001908152602001600020819055508173ffffffffffffffffffffffffffffffffffffffff168373ffffffffffffffffffffffffffffffffffffffff167f8c5be1e5ebec7d5bd14f71427d1e84f3dd0314c0f7b2291e5b200ac8c7c3b925836040516122b69190612b3c565b60405180910390a3505050565b61231581600160008673ffffffffffffffffffffffffffffffffffffffff1673ffffffffffffffffffffffffffffffffffffffff16815260200190815260200160002054611e8b90919063ffffffff16565b600160008573ffffffffffffffffffffffffffffffffffffffff1673ffffffffffffffffffffffffffffffffffffffff168152602001908152602001600020819055506123aa81600160008573ffffffffffffffffffffffffffffffffffffffff1673ffffffffffffffffffffffffffffffffffffffff1681526020019081526020016000205461277890919063ffffffff16565b600160008473ffffffffffffffffffffffffffffffffffffffff1673ffffffffffffffffffffffffffffffffffffffff168152602001908152602001600020819055508173ffffffffffffffffffffffffffffffffffffffff168373ffffffffffffffffffffffffffffffffffffffff167fddf252ad1be2c89b69c2b068fc378daa952ba7f163c4a11628f55a4df523b3ef8360405161244a9190612b3c565b60405180910390a3505050565b600060038211156124be57819050600060016002846124769190613253565b6124809190613958565b90505b818110156124b857809150600281828561249d9190613253565b6124a79190613958565b6124b19190613253565b9050612483565b506124cc565b600082146124cb57600190505b5b919050565b6124e68160005461277890919063ffffffff16565b60008190555061253e81600160008573ffffffffffffffffffffffffffffffffffffffff1673ffffffffffffffffffffffffffffffffffffffff1681526020019081526020016000205461277890919063ffffffff16565b600160008473ffffffffffffffffffffffffffffffffffffffff1673ffffffffffffffffffffffffffffffffffffffff168152602001908152602001600020819055508173ffffffffffffffffffffffffffffffffffffffff16600073ffffffffffffffffffffffffffffffffffffffff167fddf252ad1be2c89b69c2b068fc378daa952ba7f163c4a11628f55a4df523b3ef836040516125df9190612b3c565b60405180910390a35050565b60008183106125fa57816125fc565b825b905092915050565b61265681600160008573ffffffffffffffffffffffffffffffffffffffff1673ffffffffffffffffffffffffffffffffffffffff16815260200190815260200160002054611e8b90919063ffffffff16565b600160008473ffffffffffffffffffffffffffffffffffffffff1673ffffffffffffffffffffffffffffffffffffffff168152602001908152602001600020819055506126ae81600054611e8b90919063ffffffff16565b600081905550600073ffffffffffffffffffffffffffffffffffffffff168273ffffffffffffffffffffffffffffffffffffffff167fddf252ad1be2c89b69c2b068fc378daa952ba7f163c4a11628f55a4df523b3ef836040516127129190612b3c565b60405180910390a35050565b60006e010000000000000000000000000000826dffffffffffffffffffffffffffff1661274b91906139dd565b9050919050565b6000816dffffffffffffffffffffffffffff16836127709190613a1f565b905092915050565b60008282846127879190613958565b91508110156127cb576040517f08c379a00000000000000000000000000000000000000000000000000000000081526004016127c290613a9c565b60405180910390fd5b92915050565b600080fd5b600080fd5b6000819050919050565b6127ee816127db565b81146127f957600080fd5b50565b60008135905061280b816127e5565b92915050565b600073ffffffffffffffffffffffffffffffffffffffff82169050919050565b600061283c82612811565b9050919050565b61284c81612831565b811461285757600080fd5b50565b60008135905061286981612843565b92915050565b600080fd5b600080fd5b600080fd5b60008083601f8401126128945761289361286f565b5b8235905067ffffffffffffffff8111156128b1576128b0612874565b5b6020830191508360018202830111156128cd576128cc612879565b5b9250929050565b6000806000806000608086880312156128f0576128ef6127d1565b5b60006128fe888289016127fc565b955050602061290f888289016127fc565b94505060406129208882890161285a565b935050606086013567ffffffffffffffff811115612941576129406127d6565b5b61294d8882890161287e565b92509250509295509295909350565b600081519050919050565b600082825260208201905092915050565b60005b8381101561299657808201518184015260208101905061297b565b60008484015250505050565b6000601f19601f8301169050919050565b60006129be8261295c565b6129c88185612967565b93506129d8818560208601612978565b6129e1816129a2565b840191505092915050565b60006020820190508181036000830152612a0681846129b3565b905092915050565b60006dffffffffffffffffffffffffffff82169050919050565b612a3181612a0e565b82525050565b600063ffffffff82169050919050565b612a5081612a37565b82525050565b6000606082019050612a6b6000830186612a28565b612a786020830185612a28565b612a856040830184612a47565b949350505050565b60008060408385031215612aa457612aa36127d1565b5b6000612ab28582860161285a565b9250506020612ac3858286016127fc565b9150509250929050565b60008115159050919050565b612ae281612acd565b82525050565b6000602082019050612afd6000830184612ad9565b92915050565b612b0c81612831565b82525050565b6000602082019050612b276000830184612b03565b92915050565b612b36816127db565b82525050565b6000602082019050612b516000830184612b2d565b92915050565b600080600060608486031215612b7057612b6f6127d1565b5b6000612b7e8682870161285a565b9350506020612b8f8682870161285a565b9250506040612ba0868287016127fc565b9150509250925092565b6000819050919050565b612bbd81612baa565b82525050565b6000602082019050612bd86000830184612bb4565b92915050565b600060ff82169050919050565b612bf481612bde565b82525050565b6000602082019050612c0f6000830184612beb565b92915050565b600060208284031215612c2b57612c2a6127d1565b5b6000612c398482850161285a565b91505092915050565b6000604082019050612c576000830185612b2d565b612c646020830184612b2d565b9392505050565b612c7481612bde565b8114612c7f57600080fd5b50565b600081359050612c9181612c6b565b92915050565b612ca081612baa565b8114612cab57600080fd5b50565b600081359050612cbd81612c97565b92915050565b600080600080600080600060e0888a031215612ce257612ce16127d1565b5b6000612cf08a828b0161285a565b9750506020612d018a828b0161285a565b9650506040612d128a828b016127fc565b9550506060612d238a828b016127fc565b9450506080612d348a828b01612c82565b93505060a0612d458a828b01612cae565b92505060c0612d568a828b01612cae565b91505092959891949750929550565b60008060408385031215612d7c57612d7b6127d1565b5b6000612d8a8582860161285a565b9250506020612d9b8582860161285a565b9150509250929050565b7f556e697377617056323a204c4f434b4544000000000000000000000000000000600082015250565b6000612ddb601183612967565b9150612de682612da5565b602082019050919050565b60006020820190508181036000830152612e0a81612dce565b9050919050565b7f556e697377617056323a20494e53554646494349454e545f4f55545055545f4160008201527f4d4f554e54000000000000000000000000000000000000000000000000000000602082015250565b6000612e6d602583612967565b9150612e7882612e11565b604082019050919050565b60006020820190508181036000830152612e9c81612e60565b9050919050565b7f556e697377617056323a20494e53554646494349454e545f4c4951554944495460008201527f5900000000000000000000000000000000000000000000000000000000000000602082015250565b6000612eff602183612967565b9150612f0a82612ea3565b604082019050919050565b60006020820190508181036000830152612f2e81612ef2565b9050919050565b7f556e697377617056323a20494e56414c49445f544f0000000000000000000000600082015250565b6000612f6b601583612967565b9150612f7682612f35565b602082019050919050565b60006020820190508181036000830152612f9a81612f5e565b9050919050565b600082825260208201905092915050565b82818337600083830152505050565b6000612fcd8385612fa1565b9350612fda838584612fb2565b612fe3836129a2565b840190509392505050565b60006080820190506130036000830188612b03565b6130106020830187612b2d565b61301d6040830186612b2d565b8181036060830152613030818486612fc1565b90509695505050505050565b60008151905061304b816127e5565b92915050565b600060208284031215613067576130666127d1565b5b60006130758482850161303c565b91505092915050565b7f4e487b7100000000000000000000000000000000000000000000000000000000600052601160045260246000fd5b60006130b8826127db565b91506130c3836127db565b92508282039050818111156130db576130da61307e565b5b92915050565b7f556e697377617056323a20494e53554646494349454e545f494e5055545f414d60008201527f4f554e5400000000000000000000000000000000000000000000000000000000602082015250565b600061313d602483612967565b9150613148826130e1565b604082019050919050565b6000602082019050818103600083015261316c81613130565b9050919050565b7f556e697377617056323a204b0000000000000000000000000000000000000000600082015250565b60006131a9600c83612967565b91506131b482613173565b602082019050919050565b600060208201905081810360008301526131d88161319c565b9050919050565b60006080820190506131f46000830187612b2d565b6132016020830186612b2d565b61320e6040830185612b2d565b61321b6060830184612b2d565b95945050505050565b7f4e487b7100000000000000000000000000000000000000000000000000000000600052601260045260246000fd5b600061325e826127db565b9150613269836127db565b92508261327957613278613224565b5b828204905092915050565b7f556e697377617056323a20494e53554646494349454e545f4c4951554944495460008201527f595f4d494e544544000000000000000000000000000000000000000000000000602082015250565b60006132e0602883612967565b91506132eb82613284565b604082019050919050565b6000602082019050818103600083015261330f816132d3565b9050919050565b7f556e697377617056323a20494e53554646494349454e545f4c4951554944495460008201527f595f4255524e4544000000000000000000000000000000000000000000000000602082015250565b6000613372602883612967565b915061337d82613316565b604082019050919050565b600060208201905081810360008301526133a181613365565b9050919050565b7f556e697377617056323a20455850495245440000000000000000000000000000600082015250565b60006133de601283612967565b91506133e9826133a8565b602082019050919050565b6000602082019050818103600083015261340d816133d1565b9050919050565b600061341f826127db565b91507fffffffffffffffffffffffffffffffffffffffffffffffffffffffffffffffff82036134515761345061307e565b5b600182019050919050565b600060c0820190506134716000830189612bb4565b61347e6020830188612b03565b61348b6040830187612b03565b6134986060830186612b2d565b6134a56080830185612b2d565b6134b260a0830184612b2d565b979650505050505050565b600081905092915050565b7f1901000000000000000000000000000000000000000000000000000000000000600082015250565b60006134fe6002836134bd565b9150613509826134c8565b600282019050919050565b6000819050919050565b61352f61352a82612baa565b613514565b82525050565b6000613540826134f1565b915061354c828561351e565b60208201915061355c828461351e565b6020820191508190509392505050565b60006080820190506135816000830187612bb4565b61358e6020830186612beb565b61359b6040830185612bb4565b6135a86060830184612bb4565b95945050505050565b7f556e697377617056323a20494e56414c49445f5349474e415455524500000000600082015250565b60006135e7601c83612967565b91506135f2826135b1565b602082019050919050565b60006020820190508181036000830152613616816135da565b9050919050565b60006040820190506136326000830185612b03565b61363f6020830184612b2d565b9392505050565b600081519050919050565b600081905092915050565b600061366782613646565b6136718185613651565b9350613681818560208601612978565b80840191505092915050565b6000613699828461365c565b915081905092915050565b6136ad81612acd565b81146136b857600080fd5b50565b6000815190506136ca816136a4565b92915050565b6000602082840312156136e6576136e56127d1565b5b60006136f4848285016136bb565b91505092915050565b7f556e697377617056323a205452414e534645525f4641494c4544000000000000600082015250565b6000613733601a83612967565b915061373e826136fd565b602082019050919050565b6000602082019050818103600083015261376281613726565b9050919050565b6000613774826127db565b915061377f836127db565b925082820261378d816127db565b915082820484148315176137a4576137a361307e565b5b5092915050565b7f64732d6d6174682d6d756c2d6f766572666c6f77000000000000000000000000600082015250565b60006137e1601483612967565b91506137ec826137ab565b602082019050919050565b60006020820190508181036000830152613810816137d4565b9050919050565b7f64732d6d6174682d7375622d756e646572666c6f770000000000000000000000600082015250565b600061384d601583612967565b915061385882613817565b602082019050919050565b6000602082019050818103600083015261387c81613840565b9050919050565b7f556e697377617056323a204f564552464c4f5700000000000000000000000000600082015250565b60006138b9601383612967565b91506138c482613883565b602082019050919050565b600060208201905081810360008301526138e8816138ac565b9050919050565b60006138fa826127db565b9150613905836127db565b92508261391557613914613224565b5b828206905092915050565b600061392b82612a37565b915061393683612a37565b9250828203905063ffffffff8111156139525761395161307e565b5b92915050565b6000613963826127db565b915061396e836127db565b92508282019050808211156139865761398561307e565b5b92915050565b60006040820190506139a16000830185612a28565b6139ae6020830184612a28565b9392505050565b60007bffffffffffffffffffffffffffffffffffffffffffffffffffffffff82169050919050565b60006139e8826139b5565b91506139f3836139b5565b9250828202613a01816139b5565b91508282048414831517613a1857613a1761307e565b5b5092915050565b6000613a2a826139b5565b9150613a35836139b5565b925082613a4557613a44613224565b5b828204905092915050565b7f64732d6d6174682d6164642d6f766572666c6f77000000000000000000000000600082015250565b6000613a86601483612967565b9150613a9182613a50565b602082019050919050565b60006020820190508181036000830152613ab581613a79565b905091905056fea26469706673582212203ad584937bc7705767209784bd6d8acbea084ff67c41fefbbc4a0904c0f2730f64736f6c63430008140033",
  "linkReferences": {},
  "deployedLinkReferences": {}
}